:061005004300000007217A
:100FBB0012100C7FE87E03120FD8900000A3E0FA0A
:0D0FCB00A3E0F5828A837F66120EB880E6EF
:03000000020D816D
:0C0D8100787FE4F6D8FD75810B020DC8E8
:100FD800EF4E60167D517C04ED1D70011C144C70A1
:0A0FE800F7EF1F70011E144E70EAAF
:010FF20022DC
:090FF300EF1F70011E144E70F78F
:010FFC0022D2
:100F9C00E4FCFD7B737A357902F8120E658F0B8EAB
:0F0FAC000A8D098C08E508C313FEE50913FF221F
:06100C0043BA80D2AF22BE
:080FFD000102040810204080ED
:100B9F00ED6058EF540F900FFD93FEEF54F024F0DB
:100BAF00602424F0602524F0602624F0602724F0D0
:100BBF00602824F0602924F0602A24706003020C5E
:100BCF004F90FE10802190FE11801C90FE12801716
:100BDF0090FE13801290FE14800D90FE15800890E9
:100BEF00FE16800390FE17E04EF022EF540F900F89
:100BFF00FD93F4FEEF54F024F0602124F0602224E2
:100C0F00F0602324F0602424F0602524F060262473
:100C1F00F060272470702990FE10802190FE1180C3
:100C2F001C90FE12801790FE13801290FE14800D00
:100C3F0090FE15800890FE16800390FE17E05EF080
:010C4F002282
:100A0000EF540F900FFD93FEEF54F024F0605E243E
:100A1000F07003020A9A24F07003020AC724F070EF
:100A200003020AF424F07003020B2124F070030285
:100A30000B4B24F07003020B7524706003020B9EB5
:100A4000ED14601414601914601B24036003020B7E
:100A50009EEEF45293529422EE4293EEF45294227C
:100A6000EE42938004EEF45293EE429422ED146031
:100A70001414601914601B24036003020B9EEEF42F
:100A80005291529222EE4291EEF4529222EE429113
:100A90008004EEF45291EE429222ED146014146040
:100AA0001914601B24036003020B9EEEF45295524E
:100AB0009622EE4295EEF4529622EE42958004EE96
:100AC000F45295EE429622ED1460141460191460ED
:100AD0001B24036003020B9EEEF452B152B222EECD
:100AE00042B1EEF452B222EE42B18004EEF452B1C1
:100AF000EE42B222ED14601414601914601B24033A
:100B00006003020B9EEEF452B352B422EE42B3EEF7
:100B1000F452B422EE42B38004EEF452B3EE42B487
:100B200022ED1460111460161460182403706FEE27
:100B3000F452C952CA22EE42C9EEF452CA22EE421F
:100B4000C98004EEF452C9EE42CA22ED14601114B9
:100B5000601614601824037045EEF452CB52CC2278
:100B6000EE42CBEEF452CC22EE42CB8004EEF452B5
:100B7000CBEE42CC22ED14601114601614601824E0
:100B800003701BEEF452E152E222EE42E1EEF45227
:0E0B9000E222EE42E18004EEF452E1EE42E297
:010B9E002234
:100C5000EF540F900FFD93FEED6043EF54F024F03E
:100C6000602024F0602024F0602024F0602024F034
:100C7000602024F0602024F060202470706AEE422E
:100C80008022EE429022EE42A022EE42B022EE42BC
:100C9000C022EE42C822EE42E822EE42F822EF5491
:100CA000F024F0602124F0602224F0602324F0601E
:100CB0002424F0602524F0602624F060272470703E
:100CC00027EEF4528022EEF4529022EEF452A0224B
:100CD000EEF452B022EEF452C022EEF452C822EEEC
:080CE000F452E822EEF452F890
:010CE80022E9
:100E0D00EF540F900FFD93FDEF54F024F06020246C
:100E1D00F0602024F0602024F0602024F060202475
:100E2D00F0602024F0602024707020AE80801FAE12
:100E3D0090801BAEA08017AEB08013AEC0800FAEF9
:100E4D00C8800BAEE88007AEF880037F0122EE5D0F
:070E5D0060037F01227F000A
:010E6400226B
:100F0C00EF540F900FFD93FEEF54F024F06020246B
:100F1C00F0602024F0602024F0602024F060202475
:100F2C00F0602024F060202470701FEE628022EEAE
:100F3C00629022EE62A022EE62B022EE62C022EE3D
:0A0F4C0062C822EE62E822EE62F8AD
:010F56002278
:100F5700EFB40800503E900F64F8282873020F7C06
:100F6700020F80020F84020F88020F8C020F90027B
:100F77000F94020F98ED628022ED629022ED62A03D
:100F870022ED62B022ED62C022ED62C822ED62E876
:050F970022ED62F822CA
:100CE900EB6048EFB408004003020D80900CFCF85B
:100CF900282873020D14020D18020D1C020D200282
:100D09000D24020D28020D2C020D30ED428022ED3A
:100D1900429022ED42A022ED42B022ED42C022EDE6
:100D290042C822ED42E822ED42F822EFB408005011
:100D390046900D41F8282873020D59020D5E020DE7
:100D490063020D68020D6D020D72020D77020D7CB2
:100D5900EDF4528022EDF4529022EDF452A022EDEE
:100D6900F452B022EDF452C022EDF452C822EDF44F
:080D790052E822EDF452F822C9
:100EBA00EFB40800503F900EC7F8282873020EDFDF
:100ECA00020EE3020EE7020EEB020EEF020EF3022F
:100EDA000EF7020EFBAE80801FAE90801BAEA08084
:100EEA0017AEB08013AEC0800FAEC8800BAEE880DC
:100EFA0007AEF880037F0122EE5D60037F01227F47
:010F0A0000E6
:010F0B0022C3
:100D8D00020FBBE493A3F8E493A34003F68001F2B2
:100D9D0008DFF48029E493A3F85407240CC8C33367
:100DAD00C4540F4420C8834004F456800146F6DF36
:100DBD00E4800B0102040810204080901005E47EB1
:100DCD00019360BCA3FF543F30E509541FFEE4932B
:100DDD00A360010ECF54C025E060A840B8E493A3F2
:100DED00FAE493A3F8E493A3C8C582C8CAC583CA1D
:100DFD00F0A3C8C582C8CAC583CADFE9DEE780BED5
:01100B0000E4
:100E6500E88FF0A4CC8BF0A42CFCE98EF0A42CFC2C
:100E75008AF0EDA42CFCEA8EF0A4CDA8F08BF0A4AA
:100E85002DCC3825F0FDE98FF0A42CCD35F0FCEB09
:100E95008EF0A4FEA9F0EB8FF0A4CFC5F02ECD39CE
:0F0EA500FEE43CFCEAA42DCE35F0FDE43CFC223B
:060EB4008A838982E473C9
:00000001FF
