:04075A0041495300BE
:060747004301010008005F
:0A073600E4F508F50BF510F51122AB
:0707400090FE137420F0226B
:06074E0090FE13E4F0220E
:0E071D00E4F5C7F5C5F5C675C3FF75C4FF2228
:0607540075F50B02071D04
:0F056600E5157F0025E0FEEF250AFFE5093EFEC3
:10057500E5134512703EC3EE94024005EE940A4021
:1005850033C3EE940A4007E42FFF74F83EFE75C7A7
:100595008375C5038FC4EEF5C375C65A75C6A50028
:1005A5000000000000000000000000000000000046
:0505B5000012071D22E9
:10060700E51345127042C3EE94024005EE940A408A
:1006170037C3EE940A4007E42FFF74F83EFE75C710
:100627008375C5028FC4EEF5C3AF058FC275C65A71
:1006370075C6A500000000000000000000000000D3
:09064700000000000012071D2252
:1005BA00E513451260037FFF22C3EE94024008EE62
:1005CA00940A50037FFF22C3EE940A4007E42FFFE8
:1005DA0074F83EFE75C78375C5018FC4EEF5C37501
:1005EA00C65A75C6A5000000000000000000000001
:0C05FA0000000000000000AFC212071D4E
:0106060022D1
:1006FE005392FC5391FC539A7F439A1075D7E87529
:0F070E00D6FF438E04538EF753AFFB438E10225A
:0B072B008F9BE59A30E1FB539AFD2202
:0E065000120691900100EFF07BFF7A07795AB5
:10065E00900104EBF0A3EAF0A3E9F0900104E0FBB3
:10066E00A3E0FAA3E0F91206C96017900104A3E40F
:10067E0075F0011206E2A9F0FA1206C9FF12072B55
:03068E0080D922EE
:10069100E4F97D04FCE4FBFAED25E0FEE42BFFEE3A
:1006A1003A8F82F583E493F4600309800D0BBB005C
:1006B100010AE4B503E2EAB402DE0DBD00010CED6E
:0706C100647C4C70D0AF0116
:0106C800220F
:1002000043BA80120740120754900800E493B402E6
:1002100004D2008002C20020B51230000F12074E37
:10022000900101A3E0FAA3E0F91206F843BA8012A4
:1002300007361206FE120691900100EFF0C2AFE5FC
:100240009A30E0FB539AFEE508B40D0050F190029D
:1002500055F828287302027C0202860202920202EA
:10026000A102031A02031A02033202033202039CA0
:1002700002039C02039C02039C020474E59BB441AC
:10028000BE75080180B9E59BB4490575080280AFC9
:10029000800AE59BB4430575080380A3E4F5088054
:1002A0009E859B0BE50B2410601D14602E24FD60C1
:1002B0003E240224FA505D240C7084E4F5081206F2
:1002C0005875C76002023FE4F5081206587FEF1226
:1002D000072B7F4012072B7F11800EE4F5081206D2
:1002E00058E4FF12072B12072B12072B02023FE4E0
:1002F000F508F514F515E5157F0025E0FE120575E6
:100300000515E51570020514C3947CE514940040AE
:10031000E502039675080402023FE513751300F524
:1003200012AF9BEF2513F513E43512F51205080201
:10033000023FE50A750A00F509AF9BEF250AF50AA9
:10034000E43509F5090508E5086408600302023F81
:10035000E50B64F5701DF508F514F5151205660535
:1003600015E51570020514C39408E514940040ECDB
:10037000120650E50B64F6600302023FF508F5141F
:10038000F5151205660515E51570020514C39440B0
:10039000E514940040EC12065002023FE50F750F81
:1003A00000F50EAF9BEF250FF50FE4350EF50E05AA
:1003B00008E508640C600302023FE50B64F2600389
:1003C00002046CF508900100E06074120658E4F530
:1003D00014F515C3E515950FE514950E40030204B9
:1003E0006CE50A2515FFE5093514EF5407B408003C
:1003F00050439003F9F828287302041102041502EF
:10040000041902041D020421020425020429020425
:100410002D7F41801D7F5080197F5080157F4C803B
:10042000117F4F800D7F4380097F4B800590010035
:10043000E0FF12072B0515E515709805148094123E
:100440000658E4F514F515C3E515950FE514950E5A
:10045000501AE50A2515FFE5093514FE1205BA12F2
:10046000072B0515E51570DF051480DBE4F50CF5A9
:100470000D02023F7400250DF5827400350CF583E2
:10048000E59BF0050DE50D7002050C650F7004E5A8
:100490000C650E600302023FF508900100E0703425
:1004A000F514F515C3E515950FE514950E5025E5E2
:1004B0000A2515FFE5093514FE74002515F582742B
:1004C000003514F583E0FD1206070515E51570D417
:0A04D000051480D012065802023F06
:03000300020803ED
:03000B0002080BDD
:03001300020813CD
:03001B0002081BBD
:03002300020823AD
:03002B0002082B9D
:030033000208338D
:03003B0002083B7D
:030043000208436D
:03004B0002084B5D
:030053000208534D
:03005B0002085B3D
:030063000208632D
:03006B0002086B1D
:030073000208730D
:03007B0002087BFD
:03008300020883ED
:03008B0002088BDD
:03009300020893CD
:03009B0002089BBD
:0300A3000208A3AD
:0300AB000208AB9D
:0300B3000208B38D
:0300BB000208BB7D
:0300C3000208C36D
:0300CB000208CB5D
:0300D3000208D34D
:0300DB000208DB3D
:0300E3000208E32D
:0300EB000208EB1D
:0300F3000208F30D
:0300FB000208FBFD
:03010300020903EB
:03010B0002090BDB
:03011300020913CB
:03011B0002091BBB
:03012300020923AB
:03012B0002092B9B
:030133000209338B
:03013B0002093B7B
:030143000209436B
:03014B0002094B5B
:030153000209534B
:03015B0002095B3B
:030163000209632B
:03016B0002096B1B
:030173000209730B
:03017B0002097BFB
:03018300020983EB
:03018B0002098BDB
:03019300020993CB
:03019B0002099BBB
:0301A3000209A3AB
:0301AB000209AB9B
:0301B3000209B38B
:0301BB000209BB7B
:0301C3000209C36B
:0301CB000209CB5B
:0301D3000209D34B
:0301DB000209DB3B
:0301E3000209E32B
:0301EB000209EB1B
:0301F3000209F30B
:0301FB000209FBFB
:030000000204DA1D
:0C04DA00787FE4F6D8FD75812002052132
:1004E600020200E493A3F8E493A34003F68001F22A
:1004F60008DFF48029E493A3F85407240CC8C33317
:10050600C4540F4420C8834004F456800146F6DFE5
:10051600E4800B0102040810204080900747E47E27
:10052600019360BCA3FF543F30E509541FFEE493DA
:10053600A360010ECF54C025E060A840B8E493A3A1
:10054600FAE493A3F8E493A3C8C582C8CAC583CACC
:10055600F0A3C8C582C8CAC583CADFE9DEE780BE84
:01074D0000AB
:1006C900BB010689828A83E0225002E722BBFE022F
:0906D900E32289828A83E4932262
:1006E200A3F8E0C5F025F0F0E582158270021583CB
:0606F200E0C838F0E82228
:0606F8008A838982E4738D
:00000001FF
