:0713730075706461746500F0
:06137A0043001500022CE7
:1012E1001213411212981213217D037F37120A0043
:1012F1007D037F36120A00C2B7B2B6120F7580F7AE
:1012C000AF057C137D737B017A00791412126E9046
:1012D0000014E0B4060AA3A3E0FAA3E0F9120D019A
:0112E00022EB
:03000000020EE904
:0C0EE900787FE4F6D8FD758120020F3000
:1013410043BA80538E7F758AF4758CFE5389FBD224
:0B135100A9C28DD28C121321D2AF2252
:08136B0001020408102040807B
:100D0700ED6058EF540F90136B93FEEF54F024F0FF
:100D1700602424F0602524F0602624F0602724F066
:100D2700602824F0602924F0602A24706003020DF3
:100D3700B790FE10802190FE11801C90FE12801744
:100D470090FE13801290FE14800D90FE158008907F
:100D5700FE16800390FE17E04EF022EF540F90131B
:100D67006B93F4FEEF54F024F0602124F06022240A
:100D7700F0602324F0602424F0602524F06026240A
:100D8700F060272470702990FE10802190FE11805A
:100D97001C90FE12801790FE13801290FE14800D97
:100DA70090FE15800890FE16800390FE17E05EF017
:010DB7002219
:100A0000EF540F90136B93FEEF54F024F0605E24CC
:100A1000F07003020A9A24F07003020AC724F070EF
:100A200003020AF424F07003020B2124F070030285
:100A30000B4B24F07003020B7524706003020B9EB5
:100A4000ED14601414601914601B24036003020B7E
:100A50009EEEF45293529422EE4293EEF45294227C
:100A6000EE42938004EEF45293EE429422ED146031
:100A70001414601914601B24036003020B9EEEF42F
:100A80005291529222EE4291EEF4529222EE429113
:100A90008004EEF45291EE429222ED146014146040
:100AA0001914601B24036003020B9EEEF45295524E
:100AB0009622EE4295EEF4529622EE42958004EE96
:100AC000F45295EE429622ED1460141460191460ED
:100AD0001B24036003020B9EEEF452B152B222EECD
:100AE00042B1EEF452B222EE42B18004EEF452B1C1
:100AF000EE42B222ED14601414601914601B24033A
:100B00006003020B9EEEF452B352B422EE42B3EEF7
:100B1000F452B422EE42B38004EEF452B3EE42B487
:100B200022ED1460111460161460182403706FEE27
:100B3000F452C952CA22EE42C9EEF452CA22EE421F
:100B4000C98004EEF452C9EE42CA22ED14601114B9
:100B5000601614601824037045EEF452CB52CC2278
:100B6000EE42CBEEF452CC22EE42CB8004EEF452B5
:100B7000CBEE42CC22ED14601114601614601824E0
:100B800003701BEEF452E152E222EE42E1EEF45227
:0E0B9000E222EE42E18004EEF452E1EE42E297
:010B9E002234
:100DB800EF540F90136B93FEED6043EF54F024F063
:100DC800602024F0602024F0602024F0602024F0CB
:100DD800602024F0602024F060202470706AEE42C5
:100DE8008022EE429022EE42A022EE42B022EE4253
:100DF800C022EE42C822EE42E822EE42F822EF5428
:100E0800F024F0602124F0602224F0602324F060B4
:100E18002424F0602524F0602624F06027247070D4
:100E280027EEF4528022EEF4529022EEF452A022E1
:100E3800EEF452B022EEF452C022EEF452C822EE82
:080E4800F452E822EEF452F826
:010E5000227F
:100FCE00EF540F90136B93FDEF54F024F060202438
:100FDE00F0602024F0602024F0602024F0602024B3
:100FEE00F0602024F0602024707020AE80801FAE50
:100FFE0090801BAEA08017AEB08013AEC0800FAE37
:10100E00C8800BAEE88007AEF880037F0122EE5D4C
:07101E0060037F01227F0047
:0110250022A8
:1010C900EF540F90136B93FEEF54F024F06020243B
:1010D900F0602024F0602024F0602024F0602024B7
:1010E900F0602024F060202470701FEE628022EEF0
:1010F900629022EE62A022EE62B022EE62C022EE7F
:0A11090062C822EE62E822EE62F8EE
:0111130022B9
:10111400EFB40800503E901121F8282873021139C9
:1011240002113D02114102114502114902114D0201
:101134001151021155ED628022ED629022ED62A000
:1011440022ED62B022ED62C022ED62C822ED62E8B7
:0511540022ED62F8220B
:100E5100EB6048EFB408004003020EE8900E64F81E
:100E6100282873020E7C020E80020E84020E880274
:100E71000E8C020E90020E94020E98ED428022ED2D
:100E8100429022ED42A022ED42B022ED42C022ED7D
:100E910042C822ED42E822ED42F822EFB4080050A8
:100EA10046900EA9F8282873020EC1020EC6020E42
:100EB100CB020ED0020ED5020EDA020EDF020EE4D4
:100EC100EDF4528022EDF4529022EDF452A022ED85
:100ED100F452B022EDF452C022EDF452C822EDF4E6
:080EE10052E822EDF452F82260
:10102600EFB40800503F901033F828287302104B95
:1010360002104F02105302105702105B02105F029B
:101046001063021067AE80801FAE90801BAEA0803A
:1010560017AEB08013AEC0800FAEC8800BAEE8806E
:1010660007AEF880037F0122EE5D60037F01227FD9
:011076000079
:011077002256
:0413810010114647BA
:10129800759A10E4FD7F02121159900010120CD0BB
:1012A8000001C2007F02121210438E0453AFFB43A9
:0812B8008E10C20043AF0122B9
:1011590090000FEDF0EF24FE703A90000FE0FF547D
:1011690001FEE5BA54FE4EF5BAEF25E02481F58279
:10117900E43413F583E493FFE4FD120A0090000FB1
:10118900E025E02482F582E43413F583E493FF7DBE
:0511990003120A002210
:0512100090000FEFF05B
:10121500A3E0F8A3E0F9A3E0FAA3E0FB7F007E30AA
:101225007D2A7C00120C3EC3E49FFFE49EFE9000E5
:0B1235000FE024FE70058FD7EEF5D609
:01124000228B
:0F135C00EF24FE7009AF058F9BD2002000FD2209
:10130100EF24FE701AEB6008439A08439A0880069E
:10131100539AF7539AF7AF058F9BD2002000FD2215
:1011D900900018EBF0A3EAF0A3E9F0AE079000182D
:1011E900E0FBA3E0FAA3E0F9120B9F6019AF0690A8
:1011F9000018A3E475F001120BECA9F0FA120B9F89
:07120900FD12135C80D722E7
:03000B0002119E41
:10119E00C0E0C0F0C083C082C0D075D000C000C017
:1011AE0001C002C003C004C005C006C00712124130
:1011BE00D007D006D005D004D003D002D001D00085
:0B11CE00D0D0D082D083D0F0D0E0322F
:0300430002107830
:10107800C0E0C083C082C0D0E59A30E031539AFE08
:1010880090000EE4F090000A04F090000DE02400B7
:10109800F582E43400F583E59BF090000BE004F062
:1010A80090000DE004F0E0C3940A4002E4F0E59AF1
:1010B80030E105539AFDC200D0D0D082D083D0E071
:0110C80032F5
:101321007F0A900000E4F0A3DFFCE490000DF09050
:0F133100000CF090000BF090000EF090000AF00E
:01134000228A
:1012410090000AE0FF30E02490000EE004F0E0FEA0
:10125100D394024007EF440290000AF0EED39408C1
:0D126100400A90000AE04404F054FEF02220
:100F750090000AE0FF30E146A3E0FED39400403E36
:100F8500EE940A5039EF54FD90000AF090000BE002
:100F9500602CA3E02400F582E43400F583E09000A2
:100FA5000FF0FD90000BE014F07F021212C09000CC
:100FB5000CE004F0E0C3940A40D2E4F080CE900047
:080FC5000AE030E20354FBF0E6
:010FCD002201
:10126E00120B9F2DF582E43CF583E493B5070280C3
:10127E0013E4120BDA120B9F2DF582E43CF583E496
:0A128E0093B507057401120BB82296
:100EF5000212E1E493A3F8E493A34003F68001F220
:100F050008DFF48029E493A3F85407240CC8C333FD
:100F1500C4540F4420C8834004F456800146F6DFCC
:100F2500E4800B010204081020408090137AE47ECF
:100F3500019360BCA3FF543F30E509541FFEE493C1
:100F4500A360010ECF54C025E060A840B8E493A388
:100F5500FAE493A3F8E493A3C8C582C8CAC583CAB3
:100F6500F0A3C8C582C8CAC583CADFE9DEE780BE6B
:01138000006C
:100B9F00BB010689828A83E0225002E722BBFE0254
:090BAF00E32289828A83E4932287
:100BB800BB010989828A83F8E028F022500327F7CD
:100BC80022BBFE05F8E328F3228A838982F8E4939E
:020BD8002822D1
:100BDA00BB010689828A83F0225002F722BBFE01FA
:020BEA00F322F4
:100BEC00A3F8E0C5F025F0F0E582158270021583BC
:060BFC00E0C838F0E82219
:100C020075F008758200EF2FFFEE33FECD33CDCCA9
:100C120033CCC58233C5829BED9AEC99E58298402C
:100C22000CF582EE9BFEED9AFDEC99FC0FD5F0D609
:100C3200E4CEFBE4CDFAE4CCF9A88222B800C1B933
:100C42000059BA002DEC8BF084CFCECDFCE5F0CB71
:100C5200F97818EF2FFFEE33FEED33FDEC33FCEBAA
:100C620033FB10D703994004EB99FB0FD8E5E4F965
:100C7200FA227818EF2FFFEE33FEED33FDEC33FC52
:100C8200C933C910D7059BE99A4007EC9BFCE99A46
:100C9200F90FD8E0E4C9FAE4CCFB2275F010EF2F8B
:100CA200FFEE33FEED33FDCC33CCC833C810D7078B
:100CB2009BEC9AE899400AED9BFDEC9AFCE899F8C6
:0E0CC2000FD5F0DAE4CDFBE4CCFAE4C8F92259
:100CD000A8828583F0D083D082120CE7120CE71231
:100CE0000CE7120CE7E473E493A3C583C5F0C58356
:100CF000C8C582C8F0A3C583C5F0C583C8C582C86E
:010D000022D0
:060D01008A838982E4737D
:00000001FF
