:0407550041495300C3
:0607420043010100080064
:0A072900E4F508F50BF510F51122B8
:07073B0090FE117402F02290
:0607490090FE11E4F02215
:0E071B00E4F5C7F5C5F5C675C3FF75C4FF222A
:06074F0075F50B02071B0B
:0F056300E5157F0025E0FEEF250AFFE5093EFEC6
:10057200E5134512703EC3EE94024005EE940A4024
:1005820033C3EE940A4007E42FFF74F83EFE75C7AA
:100592008375C5038FC4EEF5C375C65A75C6A5002B
:1005A2000000000000000000000000000000000049
:0505B2000012071B22EE
:10060400E51345127042C3EE94024005EE940A408D
:1006140037C3EE940A4007E42FFF74F83EFE75C713
:100624008375C5028FC4EEF5C3AF058FC275C65A74
:1006340075C6A500000000000000000000000000D6
:09064400000000000012071B2257
:1005B700E513451260037FFF22C3EE94024008EE65
:1005C700940A50037FFF22C3EE940A4007E42FFFEB
:1005D70074F83EFE75C78375C5018FC4EEF5C37504
:1005E700C65A75C6A5000000000000000000000004
:0C05F70000000000000000AFC212071B53
:0106030022D4
:1006FB00E598543F4440F598D29C538EFE758BE899
:10070B00758DFF438E4053890FC2ABC28FD28E22A1
:080733008F993099FDC2992253
:0E064D0012068E900100EFF07BFF7A077955C0
:10065B00900104EBF0A3EAF0A3E9F0900104E0FBB6
:10066B00A3E0FAA3E0F91206C66017900104A3E415
:10067B0075F0011206DFA9F0FA1206C6FF12073356
:03068B0080D922F1
:10068E00E4F97D04FCE4FBFAED25E0FEE42BFFEE3D
:10069E003A8F82F583E493F4600309800D0BBB005F
:1006AE00010AE4B503E2EAB402DE0DBD00010CED71
:0706BE00647C4C70D0AF0119
:0106C5002212
:1002000043BA8012073B12074F900800E493B402F0
:1002100004D2008002C20020911230000F12074960
:10022000900101A3E0FAA3E0F91206F543BA8012A7
:1002300007291206FB12068E900100EFF0C2AF30C4
:1002400098FDC298E508B40D0050F4900252F828C9
:10025000287302027902028302028F02029E0203C5
:100260001702031702032F02032F020399020399B7
:10027000020399020399020471E599B441C175081A
:100280000180BCE599B4490575080280B2800AE591
:1002900099B4430575080380A6E4F50880A1859903
:1002A0000BE50B2410601D14602E24FD603E24021B
:1002B00024FA505D240C7087E4F50812065575C7C2
:1002C0006002023FE4F5081206557FEF1207337F04
:1002D000401207337F11800EE4F508120655E4FF43
:1002E00012073312073312073302023FE4F508F511
:1002F00014F515E5157F0025E0FE1205720515E5DC
:100300001570020514C3947CE514940040E50203C3
:100310009375080402023FE513751300F512AF99B7
:10032000EF2513F513E43512F512050802023FE537
:100330000A750A00F509AF99EF250AF50AE43509AF
:10034000F5090508E5086408600302023FE50B644F
:10035000F5701DF508F514F5151205630515E5157D
:1003600070020514C39408E514940040EC12064D85
:10037000E50B64F6600302023FF508F514F515126B
:1003800005630515E51570020514C39440E5149442
:100390000040EC12064D02023FE50F750F00F50E0E
:1003A000AF99EF250FF50FE4350EF50E0508E508BA
:1003B000640C600302023FE50B64F260030204690F
:1003C000F508900100E06074120655E4F514F51587
:1003D000C3E515950FE514950E4003020469E50A7F
:1003E0002515FFE5093514EF5407B4080050439074
:1003F00003F6F828287302040E02041202041602FF
:10040000041A02041E02042202042602042A7F4166
:10041000801D7F5080197F5080157F4C80117F4F49
:10042000800D7F4380097F4B8005900100E0FF1223
:1004300007330515E515709805148094120655E4E8
:10044000F514F515C3E515950FE514950E501AE54D
:100450000A2515FFE5093514FE1205B71207330505
:1004600015E51570DF051480DBE4F50CF50D0202CF
:100470003F7400250DF5827400350CF583E599F085
:10048000050DE50D7002050C650F7004E50C650E99
:10049000600302023FF508900100E07034F514F5A6
:1004A00015C3E515950FE514950E5025E50A25159C
:1004B000FFE5093514FE74002515F5827400351426
:1004C000F583E0FD1206040515E51570D4051480CA
:0704D000D012065502023FA5
:03000300020803ED
:03000B0002080BDD
:03001300020813CD
:03001B0002081BBD
:03002300020823AD
:03002B0002082B9D
:030033000208338D
:03003B0002083B7D
:030043000208436D
:03004B0002084B5D
:030053000208534D
:03005B0002085B3D
:030063000208632D
:03006B0002086B1D
:030073000208730D
:03007B0002087BFD
:03008300020883ED
:03008B0002088BDD
:03009300020893CD
:03009B0002089BBD
:0300A3000208A3AD
:0300AB000208AB9D
:0300B3000208B38D
:0300BB000208BB7D
:0300C3000208C36D
:0300CB000208CB5D
:0300D3000208D34D
:0300DB000208DB3D
:0300E3000208E32D
:0300EB000208EB1D
:0300F3000208F30D
:0300FB000208FBFD
:03010300020903EB
:03010B0002090BDB
:03011300020913CB
:03011B0002091BBB
:03012300020923AB
:03012B0002092B9B
:030133000209338B
:03013B0002093B7B
:030143000209436B
:03014B0002094B5B
:030153000209534B
:03015B0002095B3B
:030163000209632B
:03016B0002096B1B
:030173000209730B
:03017B0002097BFB
:03018300020983EB
:03018B0002098BDB
:03019300020993CB
:03019B0002099BBB
:0301A3000209A3AB
:0301AB000209AB9B
:0301B3000209B38B
:0301BB000209BB7B
:0301C3000209C36B
:0301CB000209CB5B
:0301D3000209D34B
:0301DB000209DB3B
:0301E3000209E32B
:0301EB000209EB1B
:0301F3000209F30B
:0301FB000209FBFB
:030000000204D720
:0C04D700787FE4F6D8FD75812002051E38
:1004E300020200E493A3F8E493A34003F68001F22D
:1004F30008DFF48029E493A3F85407240CC8C3331A
:10050300C4540F4420C8834004F456800146F6DFE8
:10051300E4800B0102040810204080900742E47E2F
:10052300019360BCA3FF543F30E509541FFEE493DD
:10053300A360010ECF54C025E060A840B8E493A3A4
:10054300FAE493A3F8E493A3C8C582C8CAC583CACF
:10055300F0A3C8C582C8CAC583CADFE9DEE780BE87
:0107480000B0
:1006C600BB010689828A83E0225002E722BBFE0232
:0906D600E32289828A83E4932265
:1006DF00A3F8E0C5F025F0F0E582158270021583CE
:0606EF00E0C838F0E8222B
:0606F5008A838982E47390
:00000001FF
