:0713DB007570646174650088
:0613E20043005500022C3F
:1013220012137F1212451213427D037F37120A00F5
:101332007D037F10120A00C2B7B290120FF280F73B
:10130100AF057C137DDB7B017A0079541212D790F3
:101311000054E0B4060AA3A3E0FAA3E0F9120D0118
:0113210022A9
:03000000020EE904
:0C0EE900787FE4F6D8FD758120020F3000
:10137F0043BA80538E7F758AF4758CFE5389FBD2E6
:0B138F00A9C28DD28C121342D2AF22F3
:0813CB0001020408102040801B
:100D0700ED6058EF540F9013CB93FEEF54F024F09F
:100D1700602424F0602524F0602624F0602724F066
:100D2700602824F0602924F0602A24706003020DF3
:100D3700B790FE10802190FE11801C90FE12801744
:100D470090FE13801290FE14800D90FE158008907F
:100D5700FE16800390FE17E04EF022EF540F90131B
:100D6700CB93F4FEEF54F024F0602124F0602224AA
:100D7700F0602324F0602424F0602524F06026240A
:100D8700F060272470702990FE10802190FE11805A
:100D97001C90FE12801790FE13801290FE14800D97
:100DA70090FE15800890FE16800390FE17E05EF017
:010DB7002219
:100A0000EF540F9013CB93FEEF54F024F0605E246C
:100A1000F07003020A9A24F07003020AC724F070EF
:100A200003020AF424F07003020B2124F070030285
:100A30000B4B24F07003020B7524706003020B9EB5
:100A4000ED14601414601914601B24036003020B7E
:100A50009EEEF45293529422EE4293EEF45294227C
:100A6000EE42938004EEF45293EE429422ED146031
:100A70001414601914601B24036003020B9EEEF42F
:100A80005291529222EE4291EEF4529222EE429113
:100A90008004EEF45291EE429222ED146014146040
:100AA0001914601B24036003020B9EEEF45295524E
:100AB0009622EE4295EEF4529622EE42958004EE96
:100AC000F45295EE429622ED1460141460191460ED
:100AD0001B24036003020B9EEEF452B152B222EECD
:100AE00042B1EEF452B222EE42B18004EEF452B1C1
:100AF000EE42B222ED14601414601914601B24033A
:100B00006003020B9EEEF452B352B422EE42B3EEF7
:100B1000F452B422EE42B38004EEF452B3EE42B487
:100B200022ED1460111460161460182403706FEE27
:100B3000F452C952CA22EE42C9EEF452CA22EE421F
:100B4000C98004EEF452C9EE42CA22ED14601114B9
:100B5000601614601824037045EEF452CB52CC2278
:100B6000EE42CBEEF452CC22EE42CB8004EEF452B5
:100B7000CBEE42CC22ED14601114601614601824E0
:100B800003701BEEF452E152E222EE42E1EEF45227
:0E0B9000E222EE42E18004EEF452E1EE42E297
:010B9E002234
:100DB800EF540F9013CB93FEED6043EF54F024F003
:100DC800602024F0602024F0602024F0602024F0CB
:100DD800602024F0602024F060202470706AEE42C5
:100DE8008022EE429022EE42A022EE42B022EE4253
:100DF800C022EE42C822EE42E822EE42F822EF5428
:100E0800F024F0602124F0602224F0602324F060B4
:100E18002424F0602524F0602624F06027247070D4
:100E280027EEF4528022EEF4529022EEF452A022E1
:100E3800EEF452B022EEF452C022EEF452C822EE82
:080E4800F452E822EEF452F826
:010E5000227F
:10104B00EF540F9013CB93FDEF54F024F06020245A
:10105B00F0602024F0602024F0602024F060202435
:10106B00F0602024F0602024707020AE80801FAED2
:10107B0090801BAEA08017AEB08013AEC0800FAEB9
:10108B00C8800BAEE88007AEF880037F0122EE5DCF
:07109B0060037F01227F00CA
:0110A200222B
:10114300EF540F9013CB93FEEF54F024F060202460
:10115300F0602024F0602024F0602024F06020243C
:10116300F0602024F060202470701FEE628022EE75
:10117300629022EE62A022EE62B022EE62C022EE04
:0A11830062C822EE62E822EE62F874
:01118D00223F
:10118E00EFB40800503E90119BF82828730211B35B
:10119E000211B70211BB0211BF0211C30211C70225
:1011AE0011CB0211CFED628022ED629022ED62A092
:1011BE0022ED62B022ED62C022ED62C822ED62E83D
:0511CE0022ED62F82291
:100E5100EB6048EFB408004003020EE8900E64F81E
:100E6100282873020E7C020E80020E84020E880274
:100E71000E8C020E90020E94020E98ED428022ED2D
:100E8100429022ED42A022ED42B022ED42C022ED7D
:100E910042C822ED42E822ED42F822EFB4080050A8
:100EA10046900EA9F8282873020EC1020EC6020E42
:100EB100CB020ED0020ED5020EDA020EDF020EE4D4
:100EC100EDF4528022EDF4529022EDF452A022ED85
:100ED100F452B022EDF452C022EDF452C822EDF4E6
:080EE10052E822EDF452F82260
:1010A300EFB40800503F9010B0F82828730210C81E
:1010B3000210CC0210D00210D40210D80210DC02AD
:1010C30010E00210E4AE80801FAE90801BAEA080C3
:1010D30017AEB08013AEC0800FAEC8800BAEE880F1
:1010E30007AEF880037F0122EE5D60037F01227F5C
:0110F30000FC
:0110F40022D9
:0813D300303136371617434490
:1012450075985053873F538EDEE4FD7F011210F5EC
:10125500900050120CD00001C2007F0112127A4397
:101265008E4053890FC2ABC28FD28EC200E4F50DFA
:05127500F50CD2AC22D3
:1010F50090004FEDF0EF14704490004FE0FF54C0A6
:10110500FEE5A2543F4EF5A2EFC41313540325E0A8
:1011150024D3F582E43413F583E493FFE4FD120A46
:101125000090004FE0C41313540325E024D4F58246
:0E113500E43413F583E493FF7D03120A0022D5
:05127A0090004FEFF0B1
:10127F00A3E0F8A3E0F9A3E0FAA3E0FB7F007E3040
:10128F007D2A7C00120C3EC3E49FFFE49EFE90007B
:0A129F004FE01470058F8BEEF58D03
:0112A9002222
:1013B5007400250CF582E43400F583E0F599050CFD
:0613C500530C3FD2002290
:10136200EF1470187400250DF582E43400F583ED56
:0D137200F0050D530D3F2000031213B522AE
:10139A00EF147016EB6006D29BD29B8004C29BC2EC
:0B13AA009BAF058F99D2002000FD22B0
:10120E00900058EBF0A3EAF0A3E9F0AE0790005877
:10121E00E0FBA3E0FAA3E0F9120B9F6019AF069072
:10122E000058A3E475F001120BECA9F0FA120B9F13
:07123E00FD12136280D722AC
:03000B000211D30C
:1011D300C0E0C0F0C083C082C0D075D000C000C0E2
:1011E30001C002C003C004C005C006C0071212AA92
:1011F300D007D006D005D004D003D002D001D00050
:0B120300D0D0D082D083D0F0D0E032F9
:03002300020F7554
:100F7500C0E0C0F0C083C082C0D075D000C000C042
:100F850001C002C003C004C005C006C007309830C8
:100F9500C29890004EE4F090004A04F090004DE0B5
:100FA5002440F582E43400F583E599F090004BE0A8
:100FB50004F090004DE004F0E0C3940A4002E4F030
:100FC50030990FC299E50C650D60051213B58002C5
:100FD500C200D007D006D005D004D003D002D0017E
:0D0FE500D000D0D0D082D083D0F0D0E03248
:101342007F0A900040E4F0A3DFFCE490004DF090AF
:0F135200004CF090004BF090004EF090004AF0ED
:011361002269
:1012AA0090004AE0FF30E02490004EE004F0E0FEB7
:1012BA00D394024007EF440290004AF0EED3940818
:0D12CA00400A90004AE04404F054FEF02277
:100FF20090004AE0FF30E146A3E0FED39400403E79
:10100200EE940A5039EF54FD90004AF090004BE004
:10101200602CA3E02440F582E43400F583E09000E4
:101022004FF0FD90004BE014F07F0112130190008D
:101032004CE004F0E0C3940A40D2E4F080CE900089
:081042004AE030E20354FBF028
:01104A002283
:1012D700120B9F2DF582E43CF583E493B50702805A
:1012E70013E4120BDA120B9F2DF582E43CF583E42D
:0A12F70093B507057401120BB8222D
:100EF500021322E493A3F8E493A34003F68001F2DE
:100F050008DFF48029E493A3F85407240CC8C333FD
:100F1500C4540F4420C8834004F456800146F6DFCC
:100F2500E4800B01020408102040809013E2E47E67
:100F3500019360BCA3FF543F30E509541FFEE493C1
:100F4500A360010ECF54C025E060A840B8E493A388
:100F5500FAE493A3F8E493A3C8C582C8CAC583CAB3
:100F6500F0A3C8C582C8CAC583CADFE9DEE780BE6B
:0113E8000004
:100B9F00BB010689828A83E0225002E722BBFE0254
:090BAF00E32289828A83E4932287
:100BB800BB010989828A83F8E028F022500327F7CD
:100BC80022BBFE05F8E328F3228A838982F8E4939E
:020BD8002822D1
:100BDA00BB010689828A83F0225002F722BBFE01FA
:020BEA00F322F4
:100BEC00A3F8E0C5F025F0F0E582158270021583BC
:060BFC00E0C838F0E82219
:100C020075F008758200EF2FFFEE33FECD33CDCCA9
:100C120033CCC58233C5829BED9AEC99E58298402C
:100C22000CF582EE9BFEED9AFDEC99FC0FD5F0D609
:100C3200E4CEFBE4CDFAE4CCF9A88222B800C1B933
:100C42000059BA002DEC8BF084CFCECDFCE5F0CB71
:100C5200F97818EF2FFFEE33FEED33FDEC33FCEBAA
:100C620033FB10D703994004EB99FB0FD8E5E4F965
:100C7200FA227818EF2FFFEE33FEED33FDEC33FC52
:100C8200C933C910D7059BE99A4007EC9BFCE99A46
:100C9200F90FD8E0E4C9FAE4CCFB2275F010EF2F8B
:100CA200FFEE33FEED33FDCC33CCC833C810D7078B
:100CB2009BEC9AE899400AED9BFDEC9AFCE899F8C6
:0E0CC2000FD5F0DAE4CDFBE4CCFAE4C8F92259
:100CD000A8828583F0D083D082120CE7120CE71231
:100CE0000CE7120CE7E473E493A3C583C5F0C58356
:100CF000C8C582C8F0A3C583C5F0C583C8C582C86E
:010D000022D0
:060D01008A838982E4737D
:00000001FF
